{
  "contractName": "CrowdFund",
  "abi": [
    {
      "constant": true,
      "inputs": [],
      "name": "owner",
      "outputs": [
        {
          "name": "",
          "type": "address"
        }
      ],
      "payable": false,
      "stateMutability": "view",
      "type": "function"
    },
    {
      "inputs": [],
      "payable": false,
      "stateMutability": "nonpayable",
      "type": "constructor"
    },
    {
      "constant": false,
      "inputs": [
        {
          "name": "_campaignTitle",
          "type": "string"
        },
        {
          "name": "_campaignDescription",
          "type": "string"
        },
        {
          "name": "_goalAmount",
          "type": "uint256"
        },
        {
          "name": "_fundingPeriodInDays",
          "type": "uint256"
        }
      ],
      "name": "createCampaign",
      "outputs": [],
      "payable": false,
      "stateMutability": "nonpayable",
      "type": "function"
    },
    {
      "constant": false,
      "inputs": [
        {
          "name": "_campaignID",
          "type": "uint256"
        }
      ],
      "name": "fundCampaign",
      "outputs": [],
      "payable": true,
      "stateMutability": "payable",
      "type": "function"
    },
    {
      "constant": false,
      "inputs": [
        {
          "name": "_campaignID",
          "type": "uint256"
        }
      ],
      "name": "withdrawFunds",
      "outputs": [],
      "payable": false,
      "stateMutability": "nonpayable",
      "type": "function"
    },
    {
      "constant": false,
      "inputs": [
        {
          "name": "_campaignID",
          "type": "uint256"
        }
      ],
      "name": "claimRefund",
      "outputs": [],
      "payable": false,
      "stateMutability": "nonpayable",
      "type": "function"
    },
    {
      "constant": false,
      "inputs": [
        {
          "name": "_campaignID",
          "type": "uint256"
        }
      ],
      "name": "closeCampaign",
      "outputs": [],
      "payable": false,
      "stateMutability": "nonpayable",
      "type": "function"
    },
    {
      "constant": true,
      "inputs": [
        {
          "name": "_campaignID",
          "type": "uint256"
        }
      ],
      "name": "getContributions",
      "outputs": [
        {
          "name": "contribution",
          "type": "uint256"
        }
      ],
      "payable": false,
      "stateMutability": "view",
      "type": "function"
    }
  ],
  "bytecode": "0x608060405234801561001057600080fd5b50336000806101000a81548173ffffffffffffffffffffffffffffffffffffffff021916908373ffffffffffffffffffffffffffffffffffffffff1602179055506113a1806100606000396000f3fe6080604052600436106100705760003560e01c806392bd38bc1161004e57806392bd38bc14610142578063a318f26914610170578063b0e1c1e1146102e3578063d05e3cc51461031e57610070565b8063155dd5ee146100755780635b7baf64146100b05780638da5cb5b146100eb575b600080fd5b34801561008157600080fd5b506100ae6004803603602081101561009857600080fd5b810190808035906020019092919050505061036d565b005b3480156100bc57600080fd5b506100e9600480360360208110156100d357600080fd5b81019080803590602001909291905050506105c7565b005b3480156100f757600080fd5b506101006108e9565b604051808273ffffffffffffffffffffffffffffffffffffffff1673ffffffffffffffffffffffffffffffffffffffff16815260200191505060405180910390f35b61016e6004803603602081101561015857600080fd5b810190808035906020019092919050505061090e565b005b34801561017c57600080fd5b506102e16004803603608081101561019357600080fd5b81019080803590602001906401000000008111156101b057600080fd5b8201836020820111156101c257600080fd5b803590602001918460018302840111640100000000831117156101e457600080fd5b91908080601f016020809104026020016040519081016040528093929190818152602001838380828437600081840152601f19601f8201169050808301925050505050505091929192908035906020019064010000000081111561024757600080fd5b82018360208201111561025957600080fd5b8035906020019184600183028401116401000000008311171561027b57600080fd5b91908080601f016020809104026020016040519081016040528093929190818152602001838380828437600081840152601f19601f8201169050808301925050505050505091929192908035906020019092919080359060200190929190505050610bff565b005b3480156102ef57600080fd5b5061031c6004803603602081101561030657600080fd5b8101908080359060200190929190505050610eca565b005b34801561032a57600080fd5b506103576004803603602081101561034157600080fd5b8101908080359060200190929190505050610fb8565b6040518082815260200191505060405180910390f35b806002600082815260200190815260200160002060000160009054906101000a900473ffffffffffffffffffffffffffffffffffffffff1673ffffffffffffffffffffffffffffffffffffffff163373ffffffffffffffffffffffffffffffffffffffff1614610428576040517f08c379a000000000000000000000000000000000000000000000000000000000815260040180806020018281038252602b81526020018061134b602b913960400191505060405180910390fd5b6002600083815260200190815260200160002060060160029054906101000a900460ff166104be576040517f08c379a00000000000000000000000000000000000000000000000000000000081526004018080602001828103825260188152602001807f43616d706169676e20646f6573206e6f7420657869737473000000000000000081525060200191505060405180910390fd5b6002600083815260200190815260200160002060060160009054906101000a900460ff16610537576040517f08c379a00000000000000000000000000000000000000000000000000000000081526004018080602001828103825260268152602001806113256026913960400191505060405180910390fd5b3373ffffffffffffffffffffffffffffffffffffffff166108fc60026000858152602001908152602001600020600401549081150290604051600060405180830381858888f19350505050158015610593573d6000803e3d6000fd5b5060006002600084815260200190815260200160002060060160016101000a81548160ff0219169083151502179055505050565b6002600082815260200190815260200160002060060160029054906101000a900460ff1661065d576040517f08c379a00000000000000000000000000000000000000000000000000000000081526004018080602001828103825260188152602001807f43616d706169676e20646f6573206e6f7420657869737473000000000000000081525060200191505060405180910390fd5b60006002600083815260200190815260200160002060070160003373ffffffffffffffffffffffffffffffffffffffff1673ffffffffffffffffffffffffffffffffffffffff1681526020019081526020016000205411610726576040517f08c379a00000000000000000000000000000000000000000000000000000000081526004018080602001828103825260108152602001807f4e6f20636f6e747269627574696f6e730000000000000000000000000000000081525060200191505060405180910390fd5b61072f816110ab565b6002600082815260200190815260200160002060060160019054906101000a900460ff1615801561078157506002600082815260200190815260200160002060060160009054906101000a900460ff16155b6107f3576040517f08c379a000000000000000000000000000000000000000000000000000000000815260040180806020018281038252601a8152602001807f5265636c61696d20636f6e646974696f6e73206e6f74206d657400000000000081525060200191505060405180910390fd5b3373ffffffffffffffffffffffffffffffffffffffff166108fc6002600084815260200190815260200160002060070160003373ffffffffffffffffffffffffffffffffffffffff1673ffffffffffffffffffffffffffffffffffffffff168152602001908152602001600020549081150290604051600060405180830381858888f1935050505015801561088c573d6000803e3d6000fd5b5060006002600083815260200190815260200160002060070160003373ffffffffffffffffffffffffffffffffffffffff1673ffffffffffffffffffffffffffffffffffffffff1681526020019081526020016000208190555050565b6000809054906101000a900473ffffffffffffffffffffffffffffffffffffffff1681565b60003411610984576040517f08c379a000000000000000000000000000000000000000000000000000000000815260040180806020018281038252601d8152602001807f436f6e747269627574696f6e2073686f756c64206265203e302077656900000081525060200191505060405180910390fd5b6002600082815260200190815260200160002060060160029054906101000a900460ff16610a1a576040517f08c379a00000000000000000000000000000000000000000000000000000000081526004018080602001828103825260188152602001807f43616d706169676e20646f6573206e6f7420657869737473000000000000000081525060200191505060405180910390fd5b6002600082815260200190815260200160002060060160019054906101000a900460ff16610ab0576040517f08c379a000000000000000000000000000000000000000000000000000000000815260040180806020018281038252600f8152602001807f43616d706169676e20436c6f736564000000000000000000000000000000000081525060200191505060405180910390fd5b610ab9816110ab565b346002600083815260200190815260200160002060070160003373ffffffffffffffffffffffffffffffffffffffff1673ffffffffffffffffffffffffffffffffffffffff16815260200190815260200160002054016002600083815260200190815260200160002060070160003373ffffffffffffffffffffffffffffffffffffffff1673ffffffffffffffffffffffffffffffffffffffff168152602001908152602001600020819055503460026000838152602001908152602001600020600401540160026000838152602001908152602001600020600401819055506002600082815260200190815260200160002060030154600260008381526020019081526020016000206004015410610bfc5760016002600083815260200190815260200160002060060160006101000a81548160ff0219169083151502179055505b50565b6000845114158015610c1357506000835114155b610c68576040517f08c379a000000000000000000000000000000000000000000000000000000000815260040180806020018281038252602f8152602001806112a0602f913960400191505060405180910390fd5b60008211610cc1576040517f08c379a000000000000000000000000000000000000000000000000000000000815260040180806020018281038252602a8152602001806112cf602a913960400191505060405180910390fd5b60018110158015610cd4575061016d8111155b610d29576040517f08c379a000000000000000000000000000000000000000000000000000000000815260040180806020018281038252602c8152602001806112f9602c913960400191505060405180910390fd5b60016000815460010191905081905550610d41611192565b6040518061012001604052803373ffffffffffffffffffffffffffffffffffffffff16815260200186815260200185815260200184815260200160008152602001620151808402420181526020016000151581526020016001151581526020016001151581525090508060026000600154815260200190815260200160002060008201518160000160006101000a81548173ffffffffffffffffffffffffffffffffffffffff021916908373ffffffffffffffffffffffffffffffffffffffff1602179055506020820151816001019080519060200190610e239291906111fa565b506040820151816002019080519060200190610e409291906111fa565b50606082015181600301556080820151816004015560a0820151816005015560c08201518160060160006101000a81548160ff02191690831515021790555060e08201518160060160016101000a81548160ff0219169083151502179055506101008201518160060160026101000a81548160ff0219169083151502179055509050505050505050565b806002600082815260200190815260200160002060000160009054906101000a900473ffffffffffffffffffffffffffffffffffffffff1673ffffffffffffffffffffffffffffffffffffffff163373ffffffffffffffffffffffffffffffffffffffff1614610f85576040517f08c379a000000000000000000000000000000000000000000000000000000000815260040180806020018281038252602b81526020018061134b602b913960400191505060405180910390fd5b60006002600084815260200190815260200160002060060160016101000a81548160ff0219169083151502179055505050565b60006002600083815260200190815260200160002060060160029054906101000a900460ff16611050576040517f08c379a00000000000000000000000000000000000000000000000000000000081526004018080602001828103825260188152602001807f43616d706169676e20646f6573206e6f7420657869737473000000000000000081525060200191505060405180910390fd5b6002600083815260200190815260200160002060070160003373ffffffffffffffffffffffffffffffffffffffff1673ffffffffffffffffffffffffffffffffffffffff168152602001908152602001600020549050919050565b6002600082815260200190815260200160002060060160029054906101000a900460ff16611141576040517f08c379a00000000000000000000000000000000000000000000000000000000081526004018080602001828103825260188152602001807f43616d706169676e20646f6573206e6f7420657869737473000000000000000081525060200191505060405180910390fd5b600260008281526020019081526020016000206005015442111561118f5760006002600083815260200190815260200160002060060160016101000a81548160ff0219169083151502179055505b50565b604051806101200160405280600073ffffffffffffffffffffffffffffffffffffffff16815260200160608152602001606081526020016000815260200160008152602001600081526020016000151581526020016000151581526020016000151581525090565b828054600181600116156101000203166002900490600052602060002090601f016020900481019282601f1061123b57805160ff1916838001178555611269565b82800160010185558215611269579182015b8281111561126857825182559160200191906001019061124d565b5b509050611276919061127a565b5090565b61129c91905b80821115611298576000816000905550600101611280565b5090565b9056fe43616d706169676e205469746c6520616e64206465736372697074696f6e2063616e6e6f7420626520656d70747921476f616c20616d6f756e74206d757374206265206d6f7265207468616e207a65726f206574686572732146756e64696e6720506572696f642073686f756c64206265206265747765656e2031202d333635206461797343616e742077697468647261772e20476f616c20616d6f756e74206e6f7420726561636865644f6e6c792043616d706169676e206f776e65722063616e2063616c6c20746869732066756e6374696f6e2ea165627a7a7230582095c4cb561965832e745995de67a68750a4493c632c2c5302081bee954a10b2ee0029",
  "source": "pragma solidity 0.5.8;\n\ncontract CrowdFund {\n\n\n/* Requirements:\n\n-  Anyone can create a new campaign.\n\n-  Multiple campaigns can be created by single owner.\n\n- Each contributor can fund multiple campaigns. \n\n- Each campaign status is open or closed\n\n- Campaign owner can withdraw funds only when required funding goal has been achieved (can withdraw before deadline has passed if funding goal is achieved).\n\n\n- A Campaign is closed when:\n            * deadline has passed (not closed when target goal amount is reached as campaign owner can collect more funds than the initial target) or \n            * Campaign owner withdraws funds  \n            * Any time by the Campaign Owner for any reason.\n\n\n\n- Each contributor can only claim refunds:\n            * if deadline has passed and the required funding goal has not been achieved or\n            *  if the deadline has not passed and the required funding goal has also not been achieved but the campaign has still been closed by the owner \n\n*/\n\n    address payable public owner; //owner of contract\n    uint256 totalCampaigns;//no. of campaigns\n\n    \n    // This is a type for a single Campaign.\n    struct Campaign {\n        address payable campaignOwner; \n        string campaignTitle; \n        string campaignDescription;\n        uint256 goalAmount; //in wei\n        uint256 totalAmountFunded;//in wei\n        uint256 deadline;\n        bool goalAchieved;\n        bool isCampaignOpen;\n        bool isExists; //campaign exists or not. Campaign once created always exists even if closed\n\n        mapping(address => uint256) contributions;//stores amount donated by each unique contributor\n\n    }\n\n \n    // This declares a state variable campaigns that stores a `Campaign` struct for each unique campaign ID.\n    mapping(uint256 => Campaign) campaigns;\n\n    modifier onlyOwner {\n        require(msg.sender == owner,\"Only owner can call this function.\");\n        _;\n    }\n\n    modifier onlyCampaignOwner(uint256 _campaignID) {\n        require(msg.sender == campaigns[_campaignID].campaignOwner,\"Only Campaign owner can call this function.\");\n        _;\n    }\n\n\n    constructor() public  {\n        owner = msg.sender;\n    }\n\n    \n    //Creation of a campaign\n    function createCampaign(string memory _campaignTitle, string memory _campaignDescription, uint256 _goalAmount, uint256 _fundingPeriodInDays ) public {\n\n        require(bytes(_campaignTitle).length !=0 && bytes(_campaignDescription).length !=0, 'Campaign Title and description cannot be empty!');\n        require(_goalAmount > 0, 'Goal amount must be more than zero ethers!');\n        require(_fundingPeriodInDays >=1 && _fundingPeriodInDays <=365, 'Funding Period should be between 1 -365 days');\n\n        ++ totalCampaigns;//id of first campaign is 1 and not 0.\n\n        Campaign memory aCampaign = Campaign(msg.sender,_campaignTitle,_campaignDescription,_goalAmount,0,now + (_fundingPeriodInDays * 1 days),false,true,true);\n        campaigns[totalCampaigns] = aCampaign;\n\n    }\n\n\n    //Funding of a campaign\n    function fundCampaign(uint256 _campaignID) public payable{\n        \n        require(msg.value>0, 'Contribution should be >0 wei');\n        require(campaigns[_campaignID].isExists,'Campaign does not exists');\n        require(campaigns[_campaignID].isCampaignOpen, 'Campaign Closed');\n\n        checkCampaignDeadline(_campaignID);\n\n        campaigns[_campaignID].contributions[msg.sender] = (campaigns[_campaignID].contributions[msg.sender]) + msg.value;\n        campaigns[_campaignID].totalAmountFunded = campaigns[_campaignID].totalAmountFunded + msg.value;\n\n          //check if funding goal achieved\n          if(campaigns[_campaignID].totalAmountFunded >= campaigns[_campaignID].goalAmount){\n                    campaigns[_campaignID].goalAchieved = true; \n\n          }\n    }\n\n\n    // Withdrawl of funds by Campaign Owner\n    function withdrawFunds(uint256 _campaignID) public onlyCampaignOwner(_campaignID){\n                require(campaigns[_campaignID].isExists,'Campaign does not exists');\n                require(campaigns[_campaignID].goalAchieved, 'Cant withdraw. Goal amount not reached');\n\n                msg.sender.transfer(campaigns[_campaignID].totalAmountFunded);\n\n                campaigns[_campaignID].isCampaignOpen = false; //Close the campaign\n    }\n\n\n    //Reclaim of funds by a contributor\n    function claimRefund(uint256 _campaignID) public {\n            require(campaigns[_campaignID].isExists,'Campaign does not exists');\n            require(campaigns[_campaignID].contributions[msg.sender] > 0, 'No contributions');\n\n\n            checkCampaignDeadline(_campaignID);\n\n            require(!(campaigns[_campaignID].isCampaignOpen) && !(campaigns[_campaignID].goalAchieved),'Reclaim conditions not met' );\n\n            msg.sender.transfer(campaigns[_campaignID].contributions[msg.sender]);\n            campaigns[_campaignID].contributions[msg.sender] = 0;\n\n    }\n\n\n    //Campaign owner can close a campaign anytime\n    function closeCampaign(uint256 _campaignID) public onlyCampaignOwner(_campaignID){\n            campaigns[_campaignID].isCampaignOpen = false;\n\n    }\n\n\n    // Contributor can view his/her contribution details for a campaign\n    function getContributions(uint256 _campaignID) public view returns(uint256 contribution){\n            require(campaigns[_campaignID].isExists,'Campaign does not exists');\n\n           return campaigns[_campaignID].contributions[msg.sender];\n\n    }\n\n\n    //To check whether a campaign deadline has passed\n    function checkCampaignDeadline(uint256 _campaignID)  internal {\n        \n        require(campaigns[_campaignID].isExists,'Campaign does not exists');\n        \n        if (now > campaigns[_campaignID].deadline){\n            campaigns[_campaignID].isCampaignOpen = false;//Close the campaign\n        }\n\n    }\n\n} // close the contract",
  "sourcePath": "/Users/mariamyusuf/Documents/Truffle/crowdfund/contracts/CrowdFund.sol",
  "compiler": {
    "name": "solc",
    "version": "0.5.8+commit.23d335f2.Emscripten.clang"
  },
  "schemaVersion": "3.0.10",
  "updatedAt": "2019-06-26T15:49:40.555Z",
  "devdoc": {
    "methods": {}
  },
  "userdoc": {
    "methods": {}
  }
}